{
  "_format": "hh-sol-artifact-1",
  "contractName": "LotteryContract",
  "sourceName": "contracts/lotteryContract.sol",
  "abi": [
    {
      "inputs": [],
      "stateMutability": "nonpayable",
      "type": "constructor"
    },
    {
      "inputs": [],
      "name": "getBalance",
      "outputs": [
        {
          "internalType": "uint256",
          "name": "",
          "type": "uint256"
        }
      ],
      "stateMutability": "view",
      "type": "function"
    },
    {
      "inputs": [],
      "name": "manager",
      "outputs": [
        {
          "internalType": "address",
          "name": "",
          "type": "address"
        }
      ],
      "stateMutability": "view",
      "type": "function"
    },
    {
      "inputs": [],
      "name": "participate",
      "outputs": [],
      "stateMutability": "payable",
      "type": "function"
    },
    {
      "inputs": [],
      "name": "pickWinner",
      "outputs": [],
      "stateMutability": "nonpayable",
      "type": "function"
    },
    {
      "inputs": [
        {
          "internalType": "uint256",
          "name": "",
          "type": "uint256"
        }
      ],
      "name": "players",
      "outputs": [
        {
          "internalType": "address payable",
          "name": "",
          "type": "address"
        }
      ],
      "stateMutability": "view",
      "type": "function"
    },
    {
      "inputs": [],
      "name": "random",
      "outputs": [
        {
          "internalType": "uint256",
          "name": "",
          "type": "uint256"
        }
      ],
      "stateMutability": "view",
      "type": "function"
    },
    {
      "inputs": [],
      "name": "winner",
      "outputs": [
        {
          "internalType": "address payable",
          "name": "",
          "type": "address"
        }
      ],
      "stateMutability": "view",
      "type": "function"
    }
  ],
  "bytecode": "0x608060405234801561001057600080fd5b50336000806101000a81548173ffffffffffffffffffffffffffffffffffffffff021916908373ffffffffffffffffffffffffffffffffffffffff160217905550610adc806100606000396000f3fe6080604052600436106100705760003560e01c80635ec01e4d1161004e5780635ec01e4d146100e2578063d11711a21461010d578063dfbf53ae14610117578063f71d96cb1461014257610070565b806312065fe014610075578063481c6a75146100a05780635d495aea146100cb575b600080fd5b34801561008157600080fd5b5061008a61017f565b6040516100979190610692565b60405180910390f35b3480156100ac57600080fd5b506100b5610215565b6040516100c291906106ee565b60405180910390f35b3480156100d757600080fd5b506100e0610239565b005b3480156100ee57600080fd5b506100f7610484565b6040516101049190610692565b60405180910390f35b6101156104be565b005b34801561012357600080fd5b5061012c61056d565b604051610139919061072a565b60405180910390f35b34801561014e57600080fd5b5061016960048036038101906101649190610776565b610593565b604051610176919061072a565b60405180910390f35b60003373ffffffffffffffffffffffffffffffffffffffff1660008054906101000a900473ffffffffffffffffffffffffffffffffffffffff1673ffffffffffffffffffffffffffffffffffffffff161461020f576040517f08c379a000000000000000000000000000000000000000000000000000000000815260040161020690610800565b60405180910390fd5b47905090565b60008054906101000a900473ffffffffffffffffffffffffffffffffffffffff1681565b3373ffffffffffffffffffffffffffffffffffffffff1660008054906101000a900473ffffffffffffffffffffffffffffffffffffffff1673ffffffffffffffffffffffffffffffffffffffff16146102c7576040517f08c379a00000000000000000000000000000000000000000000000000000000081526004016102be90610892565b60405180910390fd5b60036001805490501015610310576040517f08c379a0000000000000000000000000000000000000000000000000000000008152600401610307906108fe565b60405180910390fd5b600061031a610484565b905060006001805490508261032f919061094d565b9050600181815481106103455761034461097e565b5b9060005260206000200160009054906101000a900473ffffffffffffffffffffffffffffffffffffffff16600260006101000a81548173ffffffffffffffffffffffffffffffffffffffff021916908373ffffffffffffffffffffffffffffffffffffffff160217905550600260009054906101000a900473ffffffffffffffffffffffffffffffffffffffff1673ffffffffffffffffffffffffffffffffffffffff166108fc6103f461017f565b9081150290604051600060405180830381858888f1935050505015801561041f573d6000803e3d6000fd5b50600067ffffffffffffffff81111561043b5761043a6109ad565b5b6040519080825280602002602001820160405280156104695781602001602082028036833780820191505090505b506001908051906020019061047f9291906105d2565b505050565b600044426001805490506040516020016104a0939291906109fd565b6040516020818303038152906040528051906020012060001c905090565b670de0b6b3a76400003414610508576040517f08c379a00000000000000000000000000000000000000000000000000000000081526004016104ff90610a86565b60405180910390fd5b6001339080600181540180825580915050600190039060005260206000200160009091909190916101000a81548173ffffffffffffffffffffffffffffffffffffffff021916908373ffffffffffffffffffffffffffffffffffffffff160217905550565b600260009054906101000a900473ffffffffffffffffffffffffffffffffffffffff1681565b600181815481106105a357600080fd5b906000526020600020016000915054906101000a900473ffffffffffffffffffffffffffffffffffffffff1681565b82805482825590600052602060002090810192821561064b579160200282015b8281111561064a5782518260006101000a81548173ffffffffffffffffffffffffffffffffffffffff021916908373ffffffffffffffffffffffffffffffffffffffff160217905550916020019190600101906105f2565b5b509050610658919061065c565b5090565b5b8082111561067557600081600090555060010161065d565b5090565b6000819050919050565b61068c81610679565b82525050565b60006020820190506106a76000830184610683565b92915050565b600073ffffffffffffffffffffffffffffffffffffffff82169050919050565b60006106d8826106ad565b9050919050565b6106e8816106cd565b82525050565b600060208201905061070360008301846106df565b92915050565b6000610714826106ad565b9050919050565b61072481610709565b82525050565b600060208201905061073f600083018461071b565b92915050565b600080fd5b61075381610679565b811461075e57600080fd5b50565b6000813590506107708161074a565b92915050565b60006020828403121561078c5761078b610745565b5b600061079a84828501610761565b91505092915050565b600082825260208201905092915050565b7f596f7520617265206e6f7420746865206d616e61676572000000000000000000600082015250565b60006107ea6017836107a3565b91506107f5826107b4565b602082019050919050565b60006020820190508181036000830152610819816107dd565b9050919050565b7f596f7520617265207468652077696e6e6572206f6620746865206c6f7474657260008201527f7900000000000000000000000000000000000000000000000000000000000000602082015250565b600061087c6021836107a3565b915061088782610820565b604082019050919050565b600060208201905081810360008301526108ab8161086f565b9050919050565b7f506c617965727320617265206c657373207468616e2033000000000000000000600082015250565b60006108e86017836107a3565b91506108f3826108b2565b602082019050919050565b60006020820190508181036000830152610917816108db565b9050919050565b7f4e487b7100000000000000000000000000000000000000000000000000000000600052601260045260246000fd5b600061095882610679565b915061096383610679565b9250826109735761097261091e565b5b828206905092915050565b7f4e487b7100000000000000000000000000000000000000000000000000000000600052603260045260246000fd5b7f4e487b7100000000000000000000000000000000000000000000000000000000600052604160045260246000fd5b6000819050919050565b6109f76109f282610679565b6109dc565b82525050565b6000610a0982866109e6565b602082019150610a1982856109e6565b602082019150610a2982846109e6565b602082019150819050949350505050565b7f506c65617365207061792031206574686572206f6e6c79000000000000000000600082015250565b6000610a706017836107a3565b9150610a7b82610a3a565b602082019050919050565b60006020820190508181036000830152610a9f81610a63565b905091905056fea264697066735822122048d412d0cf2a900fd9bef95a1d2c0f70c0aa35df453f14b9460c56dcf3e2e79164736f6c63430008180033",
  "linkReferences": {},
  "deployedLinkReferences": {}
}